:0400000080313128F2
:100008007E14803120007F08F0008B1D1D282700FA
:10001800131D1D2820000C162700131120008C1614
:100028008C16000020000C160C16770895000B1192
:100038008B168B1A0B1D2C2820000C1E29280C123D
:10004800760895000B118B162C288C128B120B112D
:1000580070082000FF007E100900803133287E10D0
:10006800200080317A2820000C080339F10071083B
:10007800F2007208A93E840080300318013E850012
:100088000008F1007108F300730875060319532876
:100098007308F1007108F5007508210095007208D1
:1000A800B13E840080300318013E85000008F1004D
:1000B8007108F30073087706031966287308F100BE
:1000C8007108F7007208AD3E840080300318013EC5
:1000D80085000008F1007108F3007308760603191B
:1000E80008007308F1007108F6000800F0302100DC
:1000F80099000630950023008C01CF3021008C0038
:100108000F3020008C003F3024008C000630F400B3
:100118007408F5007E30F4007408F700BF30F4006E
:100128007408F60021009D01220097010430270081
:1001380091000430920093018B158B1720000C124C
:100148008C12803137208031A528063405340434D8
:100158000434BF34BF34BF34EA347E347E347E3452
:02016800D4348D
:020000040001F9
:04000E00E4EFFFFF1D
:00000001FF
